{"abi":[{"type":"constructor","inputs":[{"name":"_axiomV2QueryAddress","type":"address","internalType":"address"}],"stateMutability":"nonpayable"},{"type":"function","name":"axiomV2Callback","inputs":[{"name":"sourceChainId","type":"uint64","internalType":"uint64"},{"name":"caller","type":"address","internalType":"address"},{"name":"querySchema","type":"bytes32","internalType":"bytes32"},{"name":"queryId","type":"uint256","internalType":"uint256"},{"name":"axiomResults","type":"bytes32[]","internalType":"bytes32[]"},{"name":"extraData","type":"bytes","internalType":"bytes"}],"outputs":[],"stateMutability":"nonpayable"},{"type":"function","name":"axiomV2OffchainCallback","inputs":[{"name":"sourceChainId","type":"uint64","internalType":"uint64"},{"name":"caller","type":"address","internalType":"address"},{"name":"querySchema","type":"bytes32","internalType":"bytes32"},{"name":"queryId","type":"uint256","internalType":"uint256"},{"name":"axiomResults","type":"bytes32[]","internalType":"bytes32[]"},{"name":"extraData","type":"bytes","internalType":"bytes"}],"outputs":[],"stateMutability":"nonpayable"},{"type":"function","name":"axiomV2QueryAddress","inputs":[],"outputs":[{"name":"","type":"address","internalType":"address"}],"stateMutability":"view"},{"type":"function","name":"installModule","inputs":[{"name":"querySchema","type":"bytes32","internalType":"bytes32"},{"name":"validator","type":"address","internalType":"address"},{"name":"executor","type":"address","internalType":"address"},{"name":"validatorData","type":"bytes","internalType":"bytes"},{"name":"executorData","type":"bytes","internalType":"bytes"}],"outputs":[],"stateMutability":"nonpayable"},{"type":"function","name":"modules","inputs":[{"name":"","type":"bytes32","internalType":"bytes32"}],"outputs":[{"name":"validator","type":"address","internalType":"address"},{"name":"executor","type":"address","internalType":"address"}],"stateMutability":"view"},{"type":"function","name":"owner","inputs":[],"outputs":[{"name":"","type":"address","internalType":"address"}],"stateMutability":"view"},{"type":"function","name":"renounceOwnership","inputs":[],"outputs":[],"stateMutability":"nonpayable"},{"type":"function","name":"transferOwnership","inputs":[{"name":"newOwner","type":"address","internalType":"address"}],"outputs":[],"stateMutability":"nonpayable"},{"type":"function","name":"uninstallModule","inputs":[{"name":"querySchema","type":"bytes32","internalType":"bytes32"}],"outputs":[],"stateMutability":"nonpayable"},{"type":"event","name":"AxiomV2Call","inputs":[{"name":"sourceChainId","type":"uint64","indexed":true,"internalType":"uint64"},{"name":"caller","type":"address","indexed":false,"internalType":"address"},{"name":"querySchema","type":"bytes32","indexed":true,"internalType":"bytes32"},{"name":"queryId","type":"uint256","indexed":true,"internalType":"uint256"}],"anonymous":false},{"type":"event","name":"AxiomV2OffchainCall","inputs":[{"name":"sourceChainId","type":"uint64","indexed":true,"internalType":"uint64"},{"name":"caller","type":"address","indexed":false,"internalType":"address"},{"name":"querySchema","type":"bytes32","indexed":true,"internalType":"bytes32"},{"name":"queryId","type":"uint256","indexed":true,"internalType":"uint256"}],"anonymous":false},{"type":"event","name":"OwnershipTransferred","inputs":[{"name":"previousOwner","type":"address","indexed":true,"internalType":"address"},{"name":"newOwner","type":"address","indexed":true,"internalType":"address"}],"anonymous":false},{"type":"error","name":"AxiomV2QueryAddressIsZero","inputs":[]},{"type":"error","name":"CallerMustBeAxiomV2Query","inputs":[]}],"bytecode":{"object":"0x60a060405234801561001057600080fd5b50604051610aa6380380610aa683398101604081905261002f916100c0565b61003833610070565b6001600160a01b03811661005f5760405163d86f565560e01b815260040160405180910390fd5b6001600160a01b03166080526100f0565b600080546001600160a01b038381166001600160a01b0319831681178455604051919092169283917f8be0079c531659141344cd1fd0a4f28419497f9722a3daafe3b4186f6b6457e09190a35050565b6000602082840312156100d257600080fd5b81516001600160a01b03811681146100e957600080fd5b9392505050565b60805161098e6101186000396000818160b2015281816102e60152610492015261098e6000f3fe608060405234801561001057600080fd5b50600436106100935760003560e01c80638da5cb5b116100665780638da5cb5b1461010c578063b0b6cc1a1461011d578063dc5cd53c14610171578063f2fde38b14610184578063fcf44ce01461019757600080fd5b8063250debc5146100985780632a75d3be146100ad578063715018a6146100f15780638193399c146100f9575b600080fd5b6100ab6100a63660046106da565b6101aa565b005b6100d47f000000000000000000000000000000000000000000000000000000000000000081565b6040516001600160a01b0390911681526020015b60405180910390f35b6100ab6102c7565b6100ab610107366004610775565b6102db565b6000546001600160a01b03166100d4565b61015161012b366004610854565b600160208190526000918252604090912080549101546001600160a01b03918216911682565b604080516001600160a01b039384168152929091166020830152016100e8565b6100ab61017f366004610775565b610487565b6100ab61019236600461086d565b610519565b6100ab6101a5366004610854565b610597565b6101b26105cb565b6040805180820182526001600160a01b03808916808352888216602080850191825260008d8152600191829052869020945185549085166001600160a01b031991821617865591519401805494909316931692909217905590516306d61fe760e41b8152636d61fe709061022c90879087906004016108b8565b600060405180830381600087803b15801561024657600080fd5b505af115801561025a573d6000803e3d6000fd5b50506040516306d61fe760e41b81526001600160a01b0388169250636d61fe70915061028c90859085906004016108b8565b600060405180830381600087803b1580156102a657600080fd5b505af11580156102ba573d6000803e3d6000fd5b5050505050505050505050565b6102cf6105cb565b6102d96000610625565b565b336001600160a01b037f00000000000000000000000000000000000000000000000000000000000000001614610324576040516312e71c9f60e11b815260040160405180910390fd5b6040516001600160a01b03881681528590879067ffffffffffffffff8b16907fd6d9923f6afa6ae6afc97c99da22b8ccadc9beafe897857b2434da0a402da98c906020015b60405180910390a46000868152600160208181526040928390208351808501855281546001600160a01b039081168083529290940154909316918301919091529151633717354f60e21b815290919063dc5cd53c906103da908c908c908c908c908c908c908c908c906004016108d4565b600060405180830381600087803b1580156103f457600080fd5b505af1158015610408573d6000803e3d6000fd5b5050505080602001516001600160a01b03166306016a508a8a8a8a8a8a8a8a6040518963ffffffff1660e01b815260040161044a9897969594939291906108d4565b600060405180830381600087803b15801561046457600080fd5b505af1158015610478573d6000803e3d6000fd5b50505050505050505050505050565b336001600160a01b037f000000000000000000000000000000000000000000000000000000000000000016146104d0576040516312e71c9f60e11b815260040160405180910390fd5b6040516001600160a01b03881681528590879067ffffffffffffffff8b16907fc6d3309bf887e48755c9a455e332b73641b6bf2fd018e3b608bf21676c4c0af590602001610369565b6105216105cb565b6001600160a01b03811661058b5760405162461bcd60e51b815260206004820152602660248201527f4f776e61626c653a206e6577206f776e657220697320746865207a65726f206160448201526564647265737360d01b60648201526084015b60405180910390fd5b61059481610625565b50565b61059f6105cb565b600090815260016020819052604090912080546001600160a01b03199081168255910180549091169055565b6000546001600160a01b031633146102d95760405162461bcd60e51b815260206004820181905260248201527f4f776e61626c653a2063616c6c6572206973206e6f7420746865206f776e65726044820152606401610582565b600080546001600160a01b038381166001600160a01b0319831681178455604051919092169283917f8be0079c531659141344cd1fd0a4f28419497f9722a3daafe3b4186f6b6457e09190a35050565b80356001600160a01b038116811461068c57600080fd5b919050565b60008083601f8401126106a357600080fd5b50813567ffffffffffffffff8111156106bb57600080fd5b6020830191508360208285010111156106d357600080fd5b9250929050565b600080600080600080600060a0888a0312156106f557600080fd5b8735965061070560208901610675565b955061071360408901610675565b9450606088013567ffffffffffffffff8082111561073057600080fd5b61073c8b838c01610691565b909650945060808a013591508082111561075557600080fd5b506107628a828b01610691565b989b979a50959850939692959293505050565b60008060008060008060008060c0898b03121561079157600080fd5b883567ffffffffffffffff80821682146107aa57600080fd5b8199506107b960208c01610675565b985060408b0135975060608b0135965060808b01359150808211156107dd57600080fd5b818b0191508b601f8301126107f157600080fd5b81358181111561080057600080fd5b8c60208260051b850101111561081557600080fd5b6020830196508095505060a08b013591508082111561083357600080fd5b506108408b828c01610691565b999c989b5096995094979396929594505050565b60006020828403121561086657600080fd5b5035919050565b60006020828403121561087f57600080fd5b61088882610675565b9392505050565b81835281816020850137506000828201602090810191909152601f909101601f19169091010190565b6020815260006108cc60208301848661088f565b949350505050565b67ffffffffffffffff891681526001600160a01b0388166020820152604081018790526060810186905260c060808201819052810184905260006001600160fb1b0385111561092257600080fd5b8460051b808760e0850137820182810360e090810160a0850152610949908201858761088f565b9b9a505050505050505050505056fea264697066735822122082a6d48f755146a2403047c68c925c768051a32b94817d02682f4dde31cd47ce64736f6c63430008130033","linkReferences":{}},"methodIdentifiers":{"axiomV2Callback(uint64,address,bytes32,uint256,bytes32[],bytes)":"dc5cd53c","axiomV2OffchainCallback(uint64,address,bytes32,uint256,bytes32[],bytes)":"8193399c","axiomV2QueryAddress()":"2a75d3be","installModule(bytes32,address,address,bytes,bytes)":"250debc5","modules(bytes32)":"b0b6cc1a","owner()":"8da5cb5b","renounceOwnership()":"715018a6","transferOwnership(address)":"f2fde38b","uninstallModule(bytes32)":"fcf44ce0"},"id":44}